:100000000C9423010C946A010C946A010C946A010B
:100010000C946A010C946A010C946A010C946A01B4
:100020000C946A010C946A010C94061C0C94DA1C62
:100030000C9471140C946A010C946A010C946A017A
:100040000C946A010C946A010C946A010C946A0184
:100050000C946A010C94BC140C946A010C946A010F
:100060000C946A010C946A010C946A010C946A0164
:100070000C946A010C946A010C946A010C946A0154
:100080000C946A010C946A010C946A010C946A0144
:100090000C946A010C946A010C946A010C946A0134
:1000A0000C946A010C946A010C946A010400050026
:1000B00006000700080009000403300000001803D0
:1000C0006D0069006E0069004D0041004300520060
:1000D0004F003600630000001E036C0065006100E5
:1000E00066006300750074007400650072006C00A7
:1000F00061006200730000000403090409023B0070
:10010000020100A0FA090400000103010100092115
:10011000110100012240000705810308000A0904BB
:100120000100010300000009211101000122BC00AF
:100130000705820320000A1201100100000008EBED
:10014000CE070001000102030105010902A101859A
:10015000020901A1000509190129051500250195CC
:1001600005750181029501750381010501093009B9
:10017000311581257F95027508810609381581257D
:100180007F950175088106050C0A38021581257FC7
:10019000950175088106C0C005010980A10185038C
:1001A00019012AB700150126B700950175108100C5
:1001B000C0050C0901A101850419012AA00215013D
:1001C00026A002950175108100C005010906A10154
:1001D0008505050719E029E7150025019508750132
:1001E00081020507190029EF1500250195F0750119
:1001F00081020508190129059505750191029501EE
:1002000075039101C005010906A101050719E0293F
:10021000E715002501950875018102950175088192
:10022000010507190029FF150026FF00950675082E
:1002300081000508190129059505750191029501AF
:1002400075039101C00011241FBECFEFDAE0DEBFBD
:10025000CDBF04B603FE27C08091470290914802AB
:10026000A0914902B0914A028730904BA740B04B11
:10027000D1F4109247021092480210924902109253
:100280004A0214BE84B7877F84BF0FB6F894A8953E
:1002900080916000886180936000109260000FBEC2
:1002A000E0E0F8E3099511E0A0E0B1E0ECE4FEE362
:1002B00002C005900D92AE37B107D9F722E0AEE744
:1002C000B1E001C01D92A734B207E1F70E943719CF
:1002D0000C94FC1E0C9400000C94B504CF93DF9397
:1002E0009C013A9521153F4168F5EC01CC27D1706E
:1002F000DC01AA27B270AC01442754709C0122276C
:10030000387094FF11C080E1CD2B09F480E0AB2B55
:1003100009F08062452B09F08064232B09F0806886
:10032000FB01DF91CF91099481E0CD2B09F480E0AE
:10033000AB2B09F08260452B09F08460232B81F3FD
:100340008860EECFDF91CF910895CF93DF93EC01DA
:10035000805E9109089720F06AE67CE0209711F40E
:100360006DED79E0CE010E946E018C2FDF91CF916F
:100370000C944D09CF93DF93EC010E949B09CE01B1
:10038000805E9109089720F061E77CE0209711F4E6
:1003900064EE79E0CE01DF91CF910C946E01CF93A2
:1003A000DF93EC010E94A501CE01DF91CF910C9467
:1003B000BA0181E0089581E008950C94DB0108956D
:1003C0000C94DF011F93CF93DF9300D000D00F92E6
:1003D000CDB7DEB749835A836B8330918D01898114
:1003E0009A8131111DC06623B9F02223A9F00E9421
:1003F0007B11182F682F89819A810E9424116981AD
:100400007A81812F0F900F900F900F900F90DF91B6
:10041000CF911F910C94A8020E945211182FEFCF78
:100420000E947B1169817A81EDCFFC01262F4081EA
:1004300051816281738184810C94E201CF93DF93B7
:10044000EC0160E00E941502BE01DF91CF910C9497
:10045000E0010E94C212811102C00E945F130E943B
:100460007A050C946C010C94B704282F2F7041F07E
:10047000822F90E02A3010F44D9608950697089543
:1004800087E290E0089508950C94430281E0089576
:100490000C944602CF93C82F0E9444028C2FCF9118
:1004A0000C94480208950E948E0C0E9452022FEF75
:1004B00084E39CE0215080409040E1F700C00000C0
:1004C0000C94E0140F931F93CF93DF93EC0161E042
:1004D0000E9415028C01BE010E94DD01882359F1A2
:1004E000BE01C8010E94F105882329F1BE01C8019F
:1004F0000E9493068823F9F0BE01C8010E94D40629
:100500008823C9F0BE01C8010E94F707882399F02B
:100510008A81882339F001158CE5180751F00E3DCA
:100520001C4579F0CE01DF91CF911F910F910C9472
:10053000D9010E94530280E0DF91CF911F910F916A
:1005400008950E945F13F7CF90E080E0089508952A
:10055000E62F272F280F3327331FC90126E0289FB6
:10056000B001299F700D1124E60FF72FF11DEE0F3A
:10057000FF1FE455FF4F859194910895FC01EE0F04
:10058000FF1FE854FF4F859194910895CF93DF9317
:100590000E94A8020E94DB03EC01811520E592076E
:1005A00008F042C0811530E4930708F0BDC0883ED2
:1005B000910528F5803E910508F09DC0883A910587
:1005C00088F4853A910508F08FC08130910509F4CF
:1005D00092C0009709F48FC0049708F08CC0D0E057
:1005E000C0E089C08F3B910508F489C0805C910907
:1005F000C03CD105A0F30E94BE02EC017CC0811575
:10060000904250F4C11581E0D80708F074C0C03F93
:10061000D10528F3D0656FC0C11590E3D90708F064
:1006200079C0CE019F70E7CF811525E5920758F577
:10063000811534E5930708F0A6C0811542E59407BB
:1006400050F4C11581E5D80708F471C0DC2FCC2720
:10065000C16FD06A50C0982F969596959E012370D1
:100660003327C115D34508F07FC0C1E0D0E002C0F8
:10067000CC0FDD1F2A95E2F720E2929FC0011124E2
:10068000C82BD92B6FC0C11589E5D807A8F4C115AF
:1006900098E5D90708F07CC0C11526E5D20708F017
:1006A0009ECF8C2F0E947204C82FD0E0DC2FCC2765
:1006B000CC27DF71D0621FC0C1153AE5D30708F41B
:1006C0006CC0CE0190568115904208F088CF8D2FD6
:1006D0008F710E94720490E0982F882788279F715D
:1006E0009C012C2BE901E6CFC55AD0E0CD5BDE4F53
:1006F000C881D0E0D064CE01DF91CF910895C85A6F
:10070000D0E0CC0FDD1FCB5EDE4F0990D881C02D2D
:10071000D464F1CFCE019927D3FF03C0EC01D86C8C
:10072000EACFEC01D06CE7CFDF70D06AE4CFCE0126
:10073000E4E096958795EA95E1F783702C2F26954E
:100740002695237090E2299F90011124382B8C2F3D
:100750008370C1E0D0E002C0CC0FDD1F8A95E2F7C4
:10076000C22BD32BDC68C7CFC1E0D0E002C0CC0FD6
:10077000DD1F2A95E2F730E2939FC0011124C82BB8
:10078000D92BDA68B8CFD82FCC27C46FD06AB3CFB3
:10079000DC2FCC27C06FD06AAECF8C2F8F700E9419
:1007A000720434E0D695C7953A95E1F7CF709C2F47
:1007B000EC01D069A0CF82389105B1F1B0F481335A
:1007C000910509F475C048F48932910509F469C0AE
:1007D0008A32910509F473C008958533910509F4AF
:1007E00059C08933910501F10895833E9105A9F11E
:1007F00038F4803E9105F9F0823E910549F1089563
:10080000863E9105A9F1873E9105C9F1843E910587
:1008100019F52091390221FF1FC08091380284FD13
:1008200014C087EE90E00895209138022370A1F063
:1008300080EE90E008952091380220FD47C030916D
:10084000390230FF09C024FF44C090E080E004C0BA
:100850002091380222FDF7CF08952091380222FD21
:100860003BC03091390230FDE3CF24FFF5CFEDCF0F
:100870002091380223FFF0CF24FDE7CFD2CF209183
:10088000380223FD2CC03091390231FFEECF84EEC7
:1008900090E008952091380225FFDECF89E290E0B4
:1008A00008952091380225FFD7CF85E390E0089581
:1008B0002091380226FFD0CF8AE290E0089520915F
:1008C000380226FFC9CF81E390E0089589E390E0E4
:1008D000089583EE90E0089582EE90E0089586EE0C
:1008E00090E008959091380292FF06C0282F287159
:1008F0002830F9F4877F846093FF06C0282F287181
:100900002831F1F4877E84612091390220FF06C0EE
:10091000382F38713830D9F4877F816021FF06C0C5
:10092000282F28712831D1F4877E816194FD877E3C
:100930000895282F24712430F9F68B7F8860DCCF4E
:10094000282F2471243101F78B7E8861DDCF382F69
:100950003171313019F78E7F8860E0CF282F2171F7
:10096000213121F78E7E8861E1CF089508950C949E
:10097000B604E82FF0E0E45DFD4F8081089508950E
:10098000CF93A6E4B1E04CE451E061E070E08D91DA
:100990008F3F91F0E82FE295EF70F0E0C1A18F70EA
:1009A0009B0101C0220F8A95EAF7922F90959C2314
:1009B00091A382A1822B82A34A175B0741F7109271
:1009C0002B0210922C0281E00E942E05CF910C94F4
:1009D0002902CF93DF93D0912B0210922B02A6E431
:1009E000B1E050E040E061E070E02D912F3FD9F0A0
:1009F000E22FE295EF70F0E080A190E02F7002C04E
:100A0000959587952A95E2F780FD26C0CB01042EA7
:100A100002C0880F991F0A94E2F79C0180912B0273
:100A2000822B80932B024F5F5F4F46305105E9F6D2
:100A3000C1E080912B028D1301C0C0E02C2F41E05A
:100A40006CE272E08BE292E00E942F050E9433027A
:100A50008C2FDF91CF91089520E0E0CF0895FF9291
:100A60000F931F93CF93DF93F82E092F162FD72FB5
:100A7000C42F222349F081E0809380010E94A114B9
:100A800090937F0180937E01809180018823A1F063
:100A900080917E0190917F010E94AD14069760F0D5
:100AA000EF2DF02FA12FBD2FCE0FDF2FD11DEC1773
:100AB000FD0741F410928001DF91CF911F910F91BA
:100AC000FF90089581918D93F2CFCF93DF93EC0146
:100AD00097FF0CC0FB018281882341F00E949005A2
:100AE000CE019F770E94D4050E94BC0581E0DF9172
:100AF000CF9108958CE090E00E94BA1E90E0B0E0A3
:100B0000A0E080932D0290932E02A0932F02B09329
:100B10003002089560912D028CE090E00C94C81E84
:100B20000E941012809331020E94231280912D02A4
:100B3000813089F0882359F0823091F08430B9F007
:100B40008FE39CE90197F1F700C00000089582EE61
:100B50000E944D09F5CF88E193E00E94CF01F0CFCC
:100B600082EE0E944D0987E50E94CA09E9CF86EE10
:100B70000E94CA0988E1F8CF80912D02813071F07E
:100B8000882341F0823031F0843061F0809131026D
:100B90000C94201282EE0E949B09F8CF8CE20E94F6
:100BA000CA09F4CF88E2FBCF0F931F93CF93DF9353
:100BB0008C01CCE0D0E0C8010C2E02C09695879540
:100BC0000A94E2F78F700E9435020E94CA092497A6
:100BD000CC3F8FEFD80779F7DF91CF911F910F911D
:100BE00008950F931F93CF93DF93EC018B01FB01CB
:100BF0008281882371F0C33EFCE5DF0719F188F498
:100C0000C13EECE5DE07C9F081E0C23EFCE5DF074E
:100C100089F0B801CE01DF91CF911F910F910C9413
:100C20006505C43E8CE5D80779F084E0C53EECE567
:100C3000DE0779F780932D0202C010922D020E94E8
:100C40008A05E7CF82E0F6CF83E0F4CF0F931F93BE
:100C5000CF93DF93C62FD42F022FFC0182818823EC
:100C6000C9F0609383010E94A11490938201809344
:100C7000810180E28C0F883008F050C0C77081E09D
:100C800001C0880FCA95EAF7DF91CF911F910F91AC
:100C90000C94DD0910918301161335C080918101F8
:100CA000909182010E94AD14883C910560F5C0E2EC
:100CB000CD0F1D17B9F080E2810F883040F4177016
:100CC00081E001C0880F1A95EAF70E94E409C83054
:100CD00048F481E09D2F977001C0880F9A95EAF73C
:100CE0000E94DD09802F0E94CA09C830B8F4D7706D
:100CF00081E001C0880FDA95EAF7DF91CF911F916B
:100D00000F910C94E40980E28C0F883038F4C7709E
:100D100081E001C0880FCA95EAF7EFCFDF91CF914C
:100D20001F910F9108959C01CB01233F4CE534079F
:100D300031F190F4283DFCE53F07E9F0293D4CE511
:100D4000340769F1273D3C4579F426E241EE61EE36
:100D50000E94260680E00895253FFCE53F07B9F094
:100D600090F0263F3C45B9F0FC0182818823D1F008
:100D700010928301089527E245EE65EEE9CF26E261
:100D800041EE60EEE5CF27E245EE64EEE1CF26E2EC
:100D900041EE62EEDDCF27E245EE66EED9CF28E2E6
:100DA00041E0EBCF81E00895CF93DF93EC01FB01AD
:100DB0008281882309F419C1C230FCE5DF07C0F144
:100DC000C6319CE5D90730F09E012A5F3C452930A9
:100DD000310570F50E94D512909339028093380244
:100DE000C031ECE5DE0709F4CFC008F05BC0C830C5
:100DF0008CE5D80709F4B6C088F5C430ECE5DE0709
:100E000009F4A8C0C0F4C2308CE5D80709F49CC02E
:100E1000809138028260C330DC4509F498C080912B
:100E20003802909139020E94E3120E948E0C80E0F9
:100E3000DF91CF910895809138028061C630ECE552
:100E4000DE0709F484C0809138028860C730DC4531
:100E500008F47DC080913802806279C0CC308CE586
:100E6000D80709F489C070F4809138028C60CA30C8
:100E7000ECE5DE0709F46BC008F478C08091380215
:100E80008E7F65C0CE308CE5D80709F479C080919B
:100E900038028B7FCF30DC4508F459C0809138028E
:100EA0008F7E55C0CB3FECE5DE0709F457C030F527
:100EB000C3318CE5D80709F46FC078F4C131ECE593
:100EC000DE0709F465C0C231DC4509F0A8CF0E94F5
:100ED0008E0C809138028F773AC0C5318CE5D807E7
:100EE00009F462C008F476C0809139028160CA3F7B
:100EF000DC4509F094CF8093390291CFCF3FFCE5D8
:100F0000DF0709F44DC088F4809139028D7FCD3F11
:100F10009CE5D90781F3809139028E7FCE3FDC4575
:100F200050F3809139028360E6CFC130FDE5DF07E1
:100F300009F459C008F444C080E0C230DD4509F02E
:100F40006ECF0E9461136BCF8091380281608093D5
:100F5000380265CF809138028460F9CF80913902E0
:100F60008260C9CF809138028064F1CF0E948E0CDC
:100F7000809138028068EBCF809138028D7FE7CF77
:100F800080913802877FE3CF809138028F7DDFCF59
:100F9000809138028F7BDBCF80913802837FD7CF5F
:100FA000809139028C7FA7CF8091380282FB9927EC
:100FB00090F921E0922790FB82F990FB83F9C7CF4B
:100FC00080913902982F909591708E7F892B90FB9C
:100FD00081F991CF0E948E0C90913802892F97FB56
:100FE00087F98058B4CF81E0ACCF81E021CFCF9397
:100FF000DF93EB0186319C4511F50E9410129A8116
:10100000992399F08A7A91E009F490E09093840111
:10101000811109C089E20E94EB110E945F1280E0F9
:10102000DF91CF91089585E3F6CF809184018111FE
:1010300004C089E20E94F211F0CF85E3FBCF81E08A
:10104000EFCF90938A01809389010895E0918901FF
:10105000F0918A01309721F00190F081E02D099400
:1010600080E00895E0918901F0918A01309799F02C
:1010700020911401222359F02091380227FF07C044
:10108000DC012C9111962C93119725E02C93028072
:10109000F381E02D09940895E0918901F0918A018E
:1010A000309739F022E0DC012C930480F581E02DAB
:1010B00009940895209187013091880128173907F4
:1010C00071F09093880180938701E0918901F091FC
:1010D0008A01309721F00680F781E02D0994089568
:1010E00020918501309186012817390771F090937E
:1010F000860180938501E0918901F0918A01309702
:1011000021F00084F185E02D0994089585B7806869
:1011100085BF85B7806885BF0895089508950C94AC
:101120008D0808950C9491080E9486080E948E08EC
:101130000C948F0881E008950E9498140E94C004C6
:101140000E94F1140C949208FF920F931F93CF9377
:10115000DF93CDB7DEB72A970FB6F894DEBF0FBE88
:10116000CDBF0E94E9040E949A0881112FC08FEF21
:1011700089838A831B820E94A1148160782F9D83BA
:101180008C8349815A816B818D810E941E090E9446
:101190007E160E94260890918B01891709F442C09F
:1011A0000E94260880938B012A960FB6F894DEBF22
:1011B0000FBECDBFDF91CF911F910F91FF900C9487
:1011C0004A028F5F000F863089F4D1CF80E00E9401
:1011D000B904182FF0908C01F81649F28091F801AB
:1011E00081FD0E94BF0480E001E0F1269F2D902345
:1011F00041F38E831F82102381E009F480E0888709
:101200000E94A1148160782F9A8789874E815F811F
:1012100068858A850E941E0980918C0108270093A9
:101220008C01B5CF2A960FB6F894DEBF0FBECDBFA6
:10123000DF91CF911F910F91FF900895CF93DF938E
:10124000CDB7DEB72B970FB6F894DEBF0FBECDBF7C
:101250004F83588769877A878B871E821D8285E036
:10126000FE013796DE01119601900D928A95E1F705
:1012700049815A816B817C818D819E812B960FB62D
:10128000F894DEBF0FBECDBFDF91CF910C94040F59
:10129000FC01808191810C94BD11CF93C82F8823CC
:1012A00009F447C08CEF8C0F813AA0F46C2F809129
:1012B0000001909101010E947A13882329F08C2F5C
:1012C0000E94F2110E945F128C2F0E94EB11CF91AD
:1012D0000C945F1280E28C0F883048F4C77081E074
:1012E00001C0880FCA95EAF70E941312F0CFEBE510
:1012F000EC0FE33040F4F0E0E658FE4F808190E0E0
:10130000CF910C945A08E8E5EC0FE73150F4F0E087
:10131000EE0FFF1FE45BFE4F80819181CF910C9413
:101320007008C03F30F08C2F0E948C15CF910C9428
:101330007316CF910895882361F19CEF980F913A2D
:1013400020F40E94F2110C945F1290E2980F9830F2
:1013500050F4877091E001C0990F8A95EAF7892FC0
:101360000E941912F0CF9BE5980F933020F490E083
:1013700080E00C945A0898E5980F973120F490E09B
:1013800080E00C947008803F20F00E94F4150C94CB
:1013900073160895CF93C82F0E944D09C93349F49D
:1013A0002FEF87EE93E0215080409040E1F700C09E
:1013B00000008C2FCF910C949B09882321F00E9470
:1013C00013120C945F120895882321F00E941912C1
:1013D0000C945F120895BF92CF92DF92EF92FF922A
:1013E0000F931F93CF93DF936C01D62FC72FFC0170
:1013F000058102950F70128111110E9433120E9413
:101400000912E82E882371F01123B1F080E28D0FCC
:10141000883090F082E00E94AA120E94091291E0A6
:10142000E82EE926BC2EB2949FE0B922EB2DF0E025
:10143000E250F14E0C94A01EE12CF4CF0C2F0F7053
:10144000C07F11F00295007F1123A9F0002359F00D
:1014500080E28D0F883010F0D11109C0802F0E94DA
:1014600013120E945F128D2F0E944D0914C0802F0D
:101470000E942612F6CF8D2F0E949B09002359F05F
:1014800080E28D0F883010F0D1112CC0802F0E9487
:1014900019120E945F122B2D2850330B2430310576
:1014A00020F40E9426080E944A02EE2009F4D5C1C9
:1014B0000E94051280FDD1C1F60112820E94FF1127
:1014C0000E948810C6010E944E0C0E94FF11DF91FD
:1014D000CF911F910F91FF90EF90DF90CF90BF9031
:1014E0000C94A910802F0E942C12D3CFFC2FFF70D8
:1014F000FF2EC07FC03219F0F29480EFF822DD2376
:1015000069F0D13049F1112391F1002351F1F60135
:10151000858180FFA8CF8F70858323C0112381F040
:10152000011106C00E9446128F290E94DD09B3CF27
:101530000130C1F70E9446128F290E944C12ABCF96
:10154000011106C00E9455128F2D0E94E409A3CFFD
:10155000013009F4A0CFF6CF112329F0063008F0AE
:101560009ACF8F2DE2CF053008F095CFEDCF002335
:1015700059F3D93349F4FFEF27EE33E0F15020401F
:101580003040E1F700C000008D2F0E949B0983CFFF
:101590008C2F86958695837069F0813009F07BCF1A
:1015A0008D2F9C2F9370111102C090E080E00E945B
:1015B000700871CF8D2F9C2F9370111102C090E095
:1015C00080E00E945A0867CF112309F1D53F99F0B6
:1015D000D63FB9F0D43F49F4809132029091330262
:1015E000816090933302809332028D2F0E948C157C
:1015F0000E94731650CF8091320290913302826024
:10160000F0CF80913202909133028460EACFD53FCF
:1016100089F0D63FA9F0D43F49F4809132029091ED
:1016200033028E7F90933302809332028D2F0E947B
:10163000F415DECF80913202909133028D7FF2CF8C
:1016400080913202909133028B7FECCF8C2F83708C
:1016500009F041C011111FCF4D2F4295469547709B
:10166000440F440F0D2F0F7010E030E020E0042EE7
:1016700004C0000F111F221F331F0A94D2F760E02D
:1016800070E0CB01D4FF0FC06FE070E080E090E02D
:1016900004C0660F771F881F991F4A95D2F760957F
:1016A000709580959095C695C695C370602B712BEB
:1016B000822B932BC23049F058F4C13019F00E94AC
:1016C0003A10E9CE0E942810E6CE0E944C10E3CEDC
:1016D0000E942610E0CE8695112311F08C2F817088
:1016E000882309F4D8CE4D2F429546954770440F74
:1016F000440F0D2F0F7010E030E020E0042E04C0E6
:10170000000F111F221F331F0A94D2F760E070E010
:10171000CB01D4FF0FC06FE070E080E090E004C028
:10172000660F771F881F991F4A95D2F760957095AD
:1017300080959095C695C695C370602B712B822BB2
:10174000932BC23049F058F4C13019F00E94FF10B9
:10175000A2CE0E94ED109FCE0E9411119CCE0E943D
:10176000621099CECF70112329F08C2F0E9488101F
:101770008D2FDBCE8D2F0E94E4098C2F0E94A910A3
:101780008ACED23F89F160F4D03FC9F0D13F29F130
:10179000112309F442C0011166CE8C2F8F7121C034
:1017A000D33F39F1D43FA1F7112369F1CF718C2FC9
:1017B0000E94881063E08C2F0E9495126CCE11233A
:1017C00041F0053008F067CE8C2F8F710E94CC104D
:1017D00062CE063008F05FCEF7CF8C2F8F711123C9
:1017E00069F20E94881057CE8C2F8F711123C9F394
:1017F000C5CF112329F08C2F8F710E9473104BCE0F
:101800000E946E1048CE81E00E94AA12023008F4B5
:1018100042CE82E00E94AA123ECE002359F0D93374
:1018200009F0B2CE8FEF97EEE3E081509040E040B8
:10183000E1F7A8CE8C2F8F71A1CF4C2F4F706D2F59
:10184000C6010E94A4020E949E0F25CE4C2F4F700D
:101850006D2FC6010E94A7021ECEDF91CF911F916E
:101860000F91FF90EF90DF90CF90BF9008950F936E
:101870001F93CF93DF93EC01688179818A810E9465
:10188000C7118C010E9423110E942510B801CE01BE
:10189000DF91CF911F910F910C94EB09CF93DF93C0
:1018A000EC018B819C81892B29F088819981892386
:1018B0008F3F19F4DF91CF910895CE010E9462020B
:1018C0008823C1F3CE010E94370CCE01DF91CF9166
:1018D0000C941E02882321F00E9426120C945F12A1
:1018E0000895882321F00E942C120C945F12089511
:1018F0000E9433120E9443120E945F120E949817A6
:101900000E94731690E080E00E945A0890E080E008
:101910000C9470080E94F9110C94780C0E94231208
:101920000C948A0CE92FE295EF70E250EE3070F4DF
:10193000F0E0E25FF04E0C94A01E803F19F020F41E
:10194000883E20F481E00895843FE1F380E008952B
:10195000883EC0F3813FD1F7F5CF93FB882780F90C
:1019600008950E94BD110C94920CCF93DF9300D088
:1019700000D00F92CDB7DEB70F900F900F900F9061
:101980000F90DF91CF910895CF93DF9300D000D0D7
:1019900000D0CDB7DEB726960FB6F894DEBF0FBEE7
:1019A000CDBFDF91CF9108951F93CF93DF93C09167
:1019B0008E0116E080918F018C1304C0DF91CF91CE
:1019C0001F910895D0E01C9FF0011D9FF00D112480
:1019D000E057FE4F408151816281738184819581FE
:1019E0000E94C40C2196C770E5CF4091C001509170
:1019F000C1016091C2017091C3018091C4019091B5
:101A0000C5010C94C40C1F93CF93DF938091C50143
:101A1000807FA9F48091C201882389F080918E0192
:101A2000C0918F016091C0017091C101A091C3016B
:101A3000B091C401D62FD72316E0C81304C0DF919C
:101A4000CF911F91089590E0109711F0DF3F19F4A6
:101A500001968770F2CF189F9001199F300D1124C5
:101A6000F901E057FE4F41814713F2CF4081461301
:101A7000EFCF42814111ECCF438154814A1B5B0B74
:101A8000483C510528F78091C5018F708061809393
:101A9000C501F901EB56FE4F80818F708061808314
:101AA00080EC91E00E944E0CDF91CF911F910C943D
:101AB000D40CAF92BF92CF92DF92EF92FF920F932E
:101AC0001F93CF93DF93CDB7DEB761970FB6F8942E
:101AD000DEBF0FBECDBF8C0185E0F801DE011D9693
:101AE00001900D928A95E1F7F80140815181E280E1
:101AF00080ECC82E81E0D82E6091C3017091C401A2
:101B00006115710509F461C19091C0012091C10175
:101B1000892F82238F3F09F458C1A380B480F090AD
:101B2000C201F501E61BF70BFF2009F4FCC0809110
:101B3000C501382F307FE83CF10508F0B2C0311103
:101B400079C0FE2C251323C0941321C0E1101FC0BF
:101B50008F7080618093C5010E94F50CC6010E94C0
:101B60004E0C8091C501F80185838F2D61960FB6CB
:101B7000F894DEBF0FBECDBFDF91CF911F910F91C3
:101B8000FF90EF90DF90CF90BF90AF900895AB287B
:101B900029F0842F85238F3F09F033C180E0F82F8F
:101BA000F170DF2E80FF3CC080918E0120918F016B
:101BB00036E0821315C04D875E878D859E850E9415
:101BC000BD11292F22952F702230F0F0243018F506
:101BD0009F70F1F0F8019581907FD1F4D12C1EC057
:101BE00090E0389FF001399FF00D1124E057FE4F2F
:101BF0006181651306C06081641303C062816E1148
:101C00000FC001968770D5CF9F7011F0882331F3F4
:101C1000805E883018F3C8010E944E0CFD2CA5CFC1
:101C2000EE2009F4A2CF8091C50181608093C501A7
:101C3000F12C9BCF251306C0941304C0F801EE20AD
:101C400009F48DC04D875E878D859E850E94B10CFD
:101C5000882319F1EE2009F18091C501803270F0DE
:101C60002091C0013091C10138872F831986BB862E
:101C7000AA868C87CE0107960E944E0C86E0F8015A
:101C8000A0ECB1E001900D928A95E1F70E94030D5E
:101C90000E94F50CFF24F39468CFC8010E944E0CFB
:101CA000F9CF311113C07A2DB98AA88A6E2D89898E
:101CB0000E94B50C80EC91E00E944E0C86E0F6018B
:101CC00011928A95E9F70E94F50CB2CF25130FC047
:101CD00094130DC0E1100BC0F8018583C8010E9468
:101CE0004E0C86E0F60111928A95E9F73ECF4D87BA
:101CF0005E878D859E850E94B10C882371F2EE204F
:101D000061F28091C501803208F4B8CF2091C00102
:101D10003091C1013A8329831B82BD82AC828E83BC
:101D2000CE010196A9CFE83CF10508F041C0FE2C98
:101D3000EE2009F4B2CF25132AC0941328C0809155
:101D4000C50180FD1BC0982F907FC1F0F8018583ED
:101D5000903F31F0982F907F905F8F70892B858313
:101D6000C8010E944E0C86E0F801A0ECB1E00190A1
:101D70000D928A95E1F70E94F50CF7CE86E0F80106
:101D8000A0ECB1E001900D928A95E1F7EECE4D877F
:101D90005E878D859E850E94B10C81116FCF8091E9
:101DA000C50181608093C501C8010E944E0CDDCE43
:101DB0007A2DB98AA88A6E2D89890E94B50C86E091
:101DC000F60111928A95E9F7D6CFEE2009F465CF96
:101DD0004D875E878D859E850E94B10CF82E8823E5
:101DE00009F45BCF86E0F801A0ECB1E001900D9220
:101DF0008A95E1F780EC91E00E9448090E94030D6A
:101E0000BACF81E08E25CBCE1F93CF93DF93CDB792
:101E1000DEB72C970FB6F894DEBF0FBECDBF4F8351
:101E2000588769877A878B879C87CE0107960E949F
:101E3000590D882369F08A859B85892B39F04F815C
:101E40005885842F85238F3F09F071C016E05FC04D
:101E500086E0FE013796DE01119601900D928A957B
:101E6000E1F78A859B85892B89F388859F81892362
:101E70008F3F61F320918F0130E0C9010196877097
:101E8000992740918E014817190671F40E948E0C13
:101E900010928F0110928E0186E0E0ECF1E0DF01FC
:101EA0001D928A95E9F7D2CF96E0929FD001939F39
:101EB000B00D1124A057BE4FFE01319601900D9236
:101EC0009A95E1F780938F010E94D40CBFCF819F38
:101ED000C001112480579E4F0E94590D8823E9F0BC
:101EE000E0918E011E9FF0011124E057FE4F4081CA
:101EF000518162817381848195810E94C40C80919B
:101F00008E0190E001968770992780938E018091D1
:101F10008E0190918F018913DACF2C960FB6F89429
:101F2000DEBF0FBECDBFDF91CF911F9108956985B0
:101F30007A858B859C850E94C40C88CFEF92FF9296
:101F40000F931F93CF93DF938C01892B81F0F12C9A
:101F5000EE24E394E8012196F8018491843770F42B
:101F6000843008F05FC08130B1F08230A1F1DF91A0
:101F7000CF911F910F91FF90EF900895853709F44D
:101F80004CC008F43DC09CE7980F903780F78F77DE
:101F90000E949B0949C00E5F1F4FFE01849190E291
:101FA000980F983060F48770FE2D01C0FF0F8A955E
:101FB000EAF78F2F0E9436120E945F1202C00E9421
:101FC0004D098F2D815030F2EFE9FFE03197F1F7A5
:101FD00000C00000F7CF0E5F1F4FFE01849190E21A
:101FE000980F983050F48770FE2D01C0FF0F8A952E
:101FF000EAF78F2F0E943C12DFCF0E949B09E1CFAE
:102000000E5F1F4FFE01C491C150D8F28FE99FE0CF
:102010000197F1F700C00000F7CF0E5F1F4FFE01E0
:10202000F490CFCF0E944D098E01CBCF08950C9430
:1020300016100E9417106093CF017093D001809307
:10204000D1019093D2010C94780C08950C9419103E
:102050000F931F930091CF011091D0012091D101D6
:102060003091D201602B712B822B932B1F910F91FA
:102070000C9419100F931F930091CF011091D00170
:102080002091D1013091D2016023712382239323C7
:102090001F910F910C9419100F931F930091CF0172
:1020A0001091D0012091D1013091D2016027712788
:1020B000822793271F910F910C9419100C941610DE
:1020C0000C945E100E9460106093CB017093CC0161
:1020D0008093CD019093CE010C94780C60E070E079
:1020E000CB010C9462100F931F9341E050E060E02D
:1020F00070E08A019B0104C0000F111F221F331FD3
:102100008A95D2F7C901B8011F910F910C94621002
:102110000F931F9341E050E060E070E004C0440F73
:10212000551F661F771F8A95D2F78091CB0190913A
:10213000CC01A091CD01B091CE018A019B01082B69
:10214000192B2A2B3B2BC901B8011F910F910C941D
:1021500062100F931F9341E050E060E070E004C014
:10216000440F551F661F771F8A95D2F7CB01BA011E
:1021700060957095809590950091CB011091CC0160
:102180002091CD013091CE016023712382239323CE
:102190001F910F910C9462100F931F9341E050E038
:1021A00060E070E004C0440F551F661F771F8A95DA
:1021B000D2F78091CB019091CC01A091CD01B0914B
:1021C000CE018A019B01082719272A273B27C9012D
:1021D000B8011F910F910C9462100F931F930091FF
:1021E000CB011091CC012091CD013091CE01602B1B
:1021F000712B822B932B1F910F910C9462100F93D4
:102200001F930091CB011091CC012091CD01309111
:10221000CE0160237123822393231F910F910C948D
:1022200062100F931F930091CB011091CC0120916C
:10223000CD013091CE0160277127822793271F910E
:102240000F910C9462100895E92FEE0FE90FEE0F35
:102250008E0F982F977041E001C0440F9A95EAF7CE
:1022600086958695869595E0899FF0011124EA531D
:10227000FE4F30E020E070E05191DF011197CB017B
:10228000022E02C0969587950A94E2F78170819597
:102290008527842385278C932F5F3F4F2530310579
:1022A00059F70895E92FEE0FE90FEE0F8E0F982FD3
:1022B000977086958695869525E0829FF00111247A
:1022C000EA53FE4F50E040E080E0219130E0092EDB
:1022D00002C0369527950A94E2F721703327042E21
:1022E00001C0220F0A94EAF7822B4F5F5F4F4530FF
:1022F000510559F70895BF92CF92DF92EF92FF9266
:102300000F931F93CF93DF938C01C090CB01D0909C
:10231000CC01E090CD01F090CE018091CF01909161
:10232000D001A091D101B091D201C82AD92AEA2ABC
:10233000FB2ACFE1D0E0BC2ED701C6010C2E04C091
:10234000B695A795979587950A94D2F780FD0EC00C
:10235000219788F7B12C8B2DDF91CF911F910F9191
:10236000FF90EF90DF90CF90BF900895B8018C2F31
:102370000E94C602019761F3EECFCF93DF93EC0189
:102380000E947B11BE01DF91CF910C94C6021F9376
:10239000CF93DF93EB0190918D01992331F0CB0125
:1023A000DF91CF911F910C94BD11882379F0CB015F
:1023B0000E947B11182F682FCE010E942411BE01AC
:1023C000812FDF91CF911F910C94C602CB010E9407
:1023D0005211182FF4CF682F8091000190910101C4
:1023E0000C94FA13682F80910001909101010C94D4
:1023F000051480910001909101010C9410148091BA
:10240000D30185958595859508958091D301877031
:1024100008959091D301977081E009F480E00895C8
:102420008091F70108959091F701892B8093F7012E
:10243000089580959091F70198239093F70108955E
:102440008093F70108951092F70108959091F60195
:10245000892B8093F601089580959091F601982339
:102460009093F60108951092F60108959091F50168
:10247000892B8093F501089580959091F50198231B
:102480009093F50108951092F50108958091D4017B
:10249000089508950C9449129091D401981721F051
:1024A0008093D4010C944A1208958091D40188231A
:1024B00029F01092D40180E00C944A120895E09122
:1024C0000001F09101018091F7018083E09100010A
:1024D000F091010180819091F601892B8083E09138
:1024E0000001F091010180819091F501892B808399
:1024F0009091D401992381F0E0910001F0910101C4
:102500008081892B808380910001909101010E943C
:10251000661381110E945512809100019091010172
:102520000C94320808950C94921298E0899F9001BF
:102530001124622B6093D3010E9488108091D301F3
:102540008595859585950C9493121092D30180E022
:102550000C9493129091D301809589238093D30199
:10256000282F277071F4282F082E000C330B921798
:10257000130639F08595859585950E94A9100C94D0
:10258000A512089590E080E00E94C21E21E08C3EDA
:102590009E4F09F020E0822F089582E090E00C9495
:1025A000BA1E83E090E00C94BA1ECF9384E090E0D2
:1025B0000E94BA1EC82F81E290E00E94BA1E982F96
:1025C0008C2FCF910895CF93C92F682F84E090E08E
:1025D0000E94C81E6C2F81E290E0CF910C94C81E1F
:1025E000AB01BC018FE090E00C94DA1EAB01BC01A2
:1025F00083E190E00C94DA1E60E070E0CB010C9473
:10260000F61260E070E0CB010E94F0120C94FC1214
:102610006CEE7EEF90E080E00E94E61E60E082E0DB
:1026200090E00E94C81E60E083E090E00E94C81E17
:102630001092CF011092D0011092D1011092D201CC
:1026400060E084E090E00E94C81E60E081E290E0DB
:102650000E94C81E60E085E090E00E94C81E60E015
:1026600086E090E00E94C81E6FEF87E090E00E9435
:10267000C81E40E050E0BA0188E090E00E94DA1EF7
:1026800060E08DE090E00E94C81E40E050E0BA019A
:1026900088E190E00E94DA1E60E087E190E00E940D
:1026A000C81E40E050E0BA018CE190E00E94DA1EC2
:1026B00060E080E290E00E94C81E0C9401130C942C
:1026C0000813682F8EE090E00C94C81EFC0132962F
:1026D00080911401882321F0809138029EE187FFC8
:1026E00096E080E0915008F4089521912223D1F3DF
:1026F0008F5FF8CF662301F1209114012223F1F0BE
:102700002091380227FF1AC0462F469546954695D8
:102710004E3190F4677021E030E002C0220F331F89
:102720006A95E2F7840F911DFC01828190E02823D5
:10273000392381E0232B69F480E00895FC0132966F
:1027400008962191261721F0E817F907D1F7F4CF61
:1027500081E008959C01FC0132969FEF80E0419159
:10276000461751F09F3F19F4411101C0982F8F5F18
:102770008630A9F79F3F09F40895290F311D97FD71
:102780003A95F90162830895FC01329608962191E9
:10279000261303C0DF0111971C92E817F907B9F758
:1027A0000895E62FE695E695E695EE3168F4E80F94
:1027B000F92FF11D677021E030E001C0220F6A950A
:1027C000EAF78281822B82830895E62FE695E695CB
:1027D000E695EE3170F4E80FF92FF11D677021E0F6
:1027E00030E001C0220F6A95EAF720958281282304
:1027F0002283089520911401222329F02091380288
:1028000027FD0C94D1130C94AA13209114012223B8
:1028100029F02091380227FD0C94E5130C94C41381
:10282000FC01329680911401882351F08091380286
:1028300087FF06C08EE1DF011D928A95E9F70895B2
:1028400086E0F9CF089508950C9423140E9424146F
:1028500080913E02843049F11092F90188E190E0C4
:1028600020E40FB6F894A895809360000FBE2093E3
:10287000600080E00E944A020E94241483B7817F96
:10288000846083BF83B7816083BF7894889583B762
:102890008E7F83BF0FB6F894A89580916000886101
:1028A00080936000109260000FBE089508950E940A
:1028B00022140E94E9040E94561480E00E94B90488
:1028C00091E0811101C090E0892F089508950C9442
:1028D00066140E948E0C0E9426080E944A020C94E4
:1028E00067141F921FB61F9211248F939F93AF936B
:1028F000BF938091F901811113C0809134029091AE
:102900003502A0913602B09137024196A11DB11D4A
:102910008093340290933502A0933602B09337022D
:10292000BF91AF919F918F911F901FBE1F901895DF
:1029300082E084BD93E095BD9AEF97BD80936E00D1
:1029400008952FB7F8948091340290913502A091A8
:102950003602B09137022FBF08959C014FB7F8940B
:102960008091340290913502A0913602B0913702E5
:102970004FBF821B930B089578941F921FB61F922E
:1029800011248F939F93AF93BF93809134029091C2
:102990003502A0913602B09137020196A11DB11DFA
:1029A0008093340290933502A0933602B09337029D
:1029B000BF91AF919F918F911F901FBE1F9018954F
:1029C00087E797E7909301088093000888E19AE0F1
:1029D0000FB6F894A895809360000FBE90936000A6
:1029E000FFCF0E94C212811102C00E945F130E9499
:1029F000CD128093F8010E94D512909339028093F2
:102A000038020E94D112682F70E090E080E00C94B0
:102A100026108091010280FF12C06091070185E0BD
:102A2000689FB00111247595679575956795603815
:102A30007105A8F561157105A1F1862F089581FF33
:102A400009C06091070185E0689FB0011124759568
:102A50006795EDCF6091070182FD0AC08091000269
:102A60008823D1F09091060160910701891728F021
:102A700085E0689FB0011124DACF869FB001112450
:102A800085E0869F9001879F300D1124692F70E0AB
:102A9000C9010E948C1ECBCF65E070E0CECF8FE7DE
:102AA000089581E008958091010280FF0CC060913B
:102AB000030170E0759567957595679561157105CA
:102AC00049F1862F089581FF06C06091030170E0EF
:102AD00075956795F3CF6091030182FD0BC09091CE
:102AE00000029923A1F060910201809103019617E1
:102AF00038F0682F70E06038710500F38FE70895B3
:102B0000899FC001112470E00E948C1EF4CF61E007
:102B100070E0D7CF81E00895803F31F40E9409151D
:102B20008195809305020895813F19F40E9409154B
:102B3000F8CF823F31F40E940915819580930402F9
:102B40000895833F19F40E940915F8CF893F29F4AD
:102B50000E9453158093060208958A3F21F40E9433
:102B600053158195F7CF8B3F31F40E945315819512
:102B70008093070208958C3F19F40E945315F8CFF3
:102B8000843F31F4809103028160809303020895B1
:102B9000853F21F4809103028260F7CF863F21F4C4
:102BA000809103028460F1CF873F21F4809103027A
:102BB0008860EBCF883F21F4809103028061E5CFEC
:102BC0008D3F31F48091010281608093010208956C
:102BD0008E3F21F4809101028260F7CF8F3FB9F7D9
:102BE000809101028460F1CF90910402803F41F412
:102BF0008091050287FD10920502992371F00895D6
:102C0000813F29F4809105021816ACF3F6CF823F7C
:102C100081F497FFF2CF1092040280910502909107
:102C20000602892B90910702892B49F71092000226
:102C30000895833F19F4191674F3DFCF893F39F4EF
:102C4000809106021816CCF610920602D6CF8A3F63
:102C500029F48091060287FFD0CFF6CF8B3F39F45D
:102C60008091070287FFC9CF10920702C6CF8C3F21
:102C700029F4809107021816BCF3BFCF843F31F4CA
:102C8000809103028E7F80930302B7CF853F21F4AA
:102C9000809103028D7FF7CF863F21F4809103025C
:102CA0008B7FF1CF873F21F480910302877FEBCFA9
:102CB000883F21F4809103028F7EE5CF8D3F31F470
:102CC000809101028E7F8093010297CF8E3F21F485
:102CD000809101028D7FF7CF8F3F09F08ECF8091D9
:102CE00001028B7FF0CF82E092E00E944C080E94AC
:102CF000A1149093FF018093FE010895CF93DF9379
:102D000000D000D000D0CDB7DEB786E0E2E0F2E040
:102D1000DE01119601900D928A95E1F780910402EF
:102D200090910502892B81F08091FC019091FD0129
:102D30000E94AD14AC0190910002992331F1809171
:102D400008018417150670F1809106029091070220
:102D5000892B91F08091FA019091FB010E94AD14B2
:102D6000AC0190910002992309F478C0809104018C
:102D70008417150608F480C026960FB6F894DEBFB7
:102D80000FBECDBFDF91CF910895209109018AE058
:102D9000289F9001112424173507B0F69F5F909368
:102DA000000202C09F3FD1F7109206021092070264
:102DB00080910402181624F40E94091580930402DD
:102DC0008091040287FF05C00E94091581958093B8
:102DD000040280910502181624F40E9409158093BC
:102DE00005028091050287FF05C00E9409158195A3
:102DF00080930502309104023323A1F02091050253
:102E0000222381F045EB3403C00111249923F1F012
:102E10009093040245EB2403900111243323D1F055
:102E2000309305020E9473168091FE019091FF017C
:102E30009093FD018093FC0186E0FE013196A2E0B3
:102E4000B2E001900D928A95E1F77ECF81E0809308
:102E50000402E0CF81E080930502E4CF20910501D8
:102E60008AE0289F900111242417350708F084CFA9
:102E70009F5F9093000202C09F3FD1F7109204021F
:102E80001092050280910602181624F40E94531530
:102E9000809306028091060287FF05C00E945315A9
:102EA00081958093060280910702181624F40E94EF
:102EB0005315809307028091070287FF05C00E9487
:102EC0005315819580930702309106023323A1F0B8
:102ED00020910702222381F045EB3403C001112425
:102EE0009923F1F09093060245EB240390011124FD
:102EF0003323D1F0309307020E9473168091FE01B4
:102F00009091FF019093FB018093FA0186E0FE010E
:102F10003196A2E0B2E001900D928A95E1F72CCFB4
:102F200081E080930602E0CF81E080930702E4CF46
:102F300086E0E2E0F2E0DF011D928A95E9F7109267
:102F40000002109201020895809128020895CF9303
:102F5000DF9300D00F92CDB7DEB790913E02943050
:102F600019F589837B836A8382E08093E9008FEF80
:102F70009091E800815095FD06C095ED9A95F1F786
:102F800000008111F5CF8091E80085FF0DC050E071
:102F900040E063E070E0CE0101960E94FB19809151
:102FA000E8008E778093E8000F900F900F90DF91EC
:102FB000CF910895CF93DF93EC010E94DE19823008
:102FC00011F0843031F4BE0184E0DF91CF910C9494
:102FD000A717DF91CF910895BC0183E00C94A71748
:102FE000CF93DF93EC010E94DE19823011F0843020
:102FF000F9F482E08093E9008FEF9091E80081502E
:1030000095FD06C095ED9A95F1F700008111F5CF79
:103010008091E80085FF0CC050E040E066E070E081
:10302000CE010E94FB198091E8008E778093E80022
:10303000DF91CF910895CF93DF93EC010E94DE19C9
:10304000823011F08430B9F5809114018823B1F1F8
:103050008091380287FF32C060E282E08093E9000D
:103060008FEF9091E800815095FD06C095ED9A95FF
:10307000F1F700008111F5CF8091E80085FF1BC0BA
:103080008091140170E050E040E0811104C050E0F4
:1030900040E068E070E0CE010E94FB198091E800FA
:1030A0008E778093E80080E2FE01A8E0B2E0019014
:1030B0000D928A95E1F7DF91CF91089568E081E064
:1030C000CDCF80913D02811109C00E948B1B0E94CF
:1030D000E81B8091E20084608093E20008951092E2
:1030E0003D020895089508950C94691442E061EC3E
:1030F00081E00E94071B42E261EC82E00C94071B16
:1031000080914002833009F45FC030F48130C1F116
:10311000823009F49BC008958A3009F487C08B304F
:1031200009F46DC0893009F04EC080913F028132B0
:1031300009F049C08091430290914402029708F03F
:1031400042C08091E800877F8093E8008091E8008A
:1031500082FF35C09091F3008091F200029729F42C
:103160008091F1008B7F813021F48091F100809378
:1031700028028091E8008B778093E8000C943B1B39
:1031800080913F02813AF9F48091E800877F809333
:10319000E8008091430290914402892B61F460E23F
:1031A00088E092E070E00E944A1A8091E8008B77F4
:1031B0008093E800089560E090E080E0F3CF809194
:1031C0003E028111C3CF089580913F02813AD9F721
:1031D0008091430290914402892BA9F78091E800E5
:1031E000877F8093E8008091E80080FFFCCF80918A
:1031F00014018093F1008091E8008E77BDCF80911B
:103200003F02813201F78091430290914402892B61
:10321000D1F68091E800877F8093E8000E943B1BF5
:1032200080914102809314010C948E0C80913F0296
:10323000813249F68091E800877F8093E8000E9400
:103240003B1B8091420280932902089580913F02A6
:10325000813A09F0B8CF8091E800877F8093E80039
:103260008091E80080FFFCCF80912902C2CF84B713
:10327000877F84BF0FB6F894A8958091600088611D
:1032800080936000109260000FBE80E890E00FB65F
:10329000F89480936100909361000FBE0E9494089F
:1032A0000E948B1B0E94E81B8091E2008460809347
:1032B000E20078940E94711E0E949C088AE091E0CE
:1032C0000E94210880913E02853019F00E94A408D6
:1032D000F9CF0E94261480913C02882399F30E9422
:1032E0005714882379F30E94E519ECCF0C947819D0
:1032F000292F33272330310519F168F421303105A6
:1033000009F44AC02230310509F44BC090E080E056
:1033100030E020E028C02132310579F12232310538
:10332000A9F780E490E025E032E061157105D9F05D
:103330008CEB90E029E431E061307105A1F0E6CF3B
:1033400099278130910599F0009741F082309105DD
:1033500089F00397D9F6E8EBF0E002C0E8EFF0E07F
:10336000849190E09F01FA01318320830895E8ED74
:10337000F0E0F6CFEEEBF0E0F3CF89E090E02EE066
:1033800031E06115710579F389E090E027E231E0E1
:103390006130710541F3BACF82E190E027E331E07B
:1033A000E2CF8BE390E02CEF30E0DDCF80913E0266
:1033B000843011F482E0089581E0089580912A021A
:1033C000811102C00C94D619089580E189BD82E173
:1033D00089BD09B400FEFDCF8091D8008F7D809318
:1033E000D8008091E00082608093E0008091E0004E
:1033F00081FDFCCF0895AF92BF92CF92DF92FF92F2
:103400000F931F93CF93DF936C01EB018A010E940E
:103410005A1BF82E811123C00115110539F0F8014E
:1034200080819181C81BD90BC80ED91EB12CA12C4B
:103430002097A9F08091E80085FD22C08091E800E6
:103440008E778093E80001151105A1F0F8018081C5
:103450009181A80EB91EB182A08285E0F82E8F2D31
:10346000DF91CF911F910F91FF90DF90CF90BF9090
:10347000AF9008950E945A1B8823D1F2F82EEFCF07
:10348000F60181916F018093F1002197FFEFAF1A50
:10349000BF0ACECFFC01809145029091460286176B
:1034A0009707A0F06115710529F49091E8009E77C7
:1034B0009093E80090E06115710551F4911108C0F6
:1034C0008091E80082FF34C080E00895BC01F2CF13
:1034D00080913E028823C1F18530C1F18091E800DE
:1034E00083FD30C08091E80082FDEACF8091E80042
:1034F00080FFE1CF8091F3002091F200382F611519
:10350000710519F02830310558F091E02830310567
:1035100009F090E02091E8002E772093E800CBCFCF
:1035200081918093F100615071092F5F3F4FE7CF88
:1035300080913E02882341F0853041F08091E8007F
:1035400083FFBECF81E0089582E0089583E008956F
:10355000FC01809145029091460286179707A0F0E2
:103560006115710529F48091E8008E778093E80059
:1035700090E06115710551F4911108C08091E80047
:1035800082FF35C080E00895BC01F2CF80913E02F9
:103590008823C9F18530C9F18091E80083FD31C0ED
:1035A0008091E80082FDEACF8091E80080FFE1CFC2
:1035B0008091F3002091F200382F6115710519F008
:1035C0002830310558F091E02830310509F090E0BD
:1035D0008091E8008E778093E800CBCF8491809330
:1035E000F1003196615071092F5F3F4FE6CF809116
:1035F0003E02882341F0853041F08091E80083FF4E
:10360000BDCF81E0089582E0089583E00895982F6A
:10361000973028F08F708093E90081E008959093AF
:10362000E900242F762F50E0981731F07091EC00CC
:103630002091ED005091F00021FD02C09F5FE8CF86
:103640003091EB003E7F3093EB003091ED003D7FF9
:103650003093ED003091EB0031603093EB007093CC
:10366000EC002093ED005093F0002091EE0027FD38
:10367000E5CF80E0089580913F0287FF13C08091DD
:10368000E80082FF06C08091E8008B778093E80015
:1036900004C080913E028111F2CF089580913E02D4
:1036A0008823D9F38091E80080FFF8CF8091E8006B
:1036B0008E77ECCF2091E4003091E50095E6A901EA
:1036C0002091EC00822F817020FF06C08091E800DD
:1036D00080FF06C080E008952091E80022FD1AC016
:1036E00080913E02882389F0853089F08091EB003B
:1036F00085FD0FC02091E4003091E500421753078B
:10370000F9F29150E1F684E0089582E0089583E0B3
:10371000089581E008950E94F91B0E94011CE0EECB
:10372000F0E0808181608083E8EDF0E080818F7738
:10373000808319BCA7EDB0E08C918E7F8C93808143
:103740008F7E808310923D0208950F931F93CF9335
:10375000DF930E94F91B0E94011CC8EDD0E0888114
:103760008F77888388818068888388818F7D88832C
:1037700019BC10923E0210923A0210923C02109232
:103780003B0200EE10E0F80180818B7F808388810E
:103790008160888342E060E080E00E94071BE1EEE8
:1037A000F0E080818E7F8083E2EEF0E080818160B6
:1037B0008083808188608083F80180818E7F808310
:1037C000888180618883DF91CF911F910F91089547
:1037D000E8EDF0E080818F7E8083E7EDF0E080818E
:1037E0008160808384E082BF81E080933D020C94FD
:1037F000A51BE8EDF0E080818E7F80831092E200CF
:1038000008951092DA001092E10008951F920F922D
:103810000FB60F9211242F933F934F935F936F93A3
:103820007F938F939F93AF93BF93EF93FF93809179
:10383000E10082FF0BC08091E20082FF07C080910F
:10384000E1008B7F8093E1000E94701E8091DA007E
:1038500080FF19C08091D80080FF15C08091DA00E8
:103860008E7F8093DA008091D90080FF96C080E13E
:1038700089BD82E189BD09B400FEFDCF81E080935E
:103880003E020E9461188091E10080FF19C0809182
:10389000E20080FF15C08091E2008E7F8093E200FD
:1038A0008091E20080618093E2008091D800806284
:1038B0008093D80019BC85E080933E020E94731863
:1038C0008091E10084FF2BC08091E20084FF27C03B
:1038D00080E189BD82E189BD89B5982F917080FF13
:1038E000FBCF8091D8008F7D8093D8008091E1003C
:1038F0008F7E8093E1008091E2008F7E8093E200D2
:103900008091E20081608093E20080913A028823F6
:1039100009F449C084E080933E020E9474188091AB
:10392000E10083FF29C08091E20083FF25C08091E0
:10393000E100877F8093E10082E080933E02109255
:103940003A028091E1008E7F8093E1008091E20055
:103950008E7F8093E2008091E20080618093E2009C
:1039600042E060E080E00E94071B8091F0008860E8
:103970008093F0000E947218FF91EF91BF91AF9178
:103980009F918F917F916F915F914F913F912F9177
:103990000F900FBE0F901F90189519BC10923E0209
:1039A0000E946F1870CF8091E30087FD93E09093A1
:1039B0003E02B3CF1F920F920FB60F9211242F9396
:1039C0003F934F935F936F937F938F939F93AF93A7
:1039D000BF93CF93DF93EF93FF93D091E900DF7014
:1039E0008091EC00C82FC17080FDC0E81092E90002
:1039F0008091F000877F8093F00078940E941E1DD4
:103A00001092E9008091F00088608093F000CD2B47
:103A1000CF70C093E900FF91EF91DF91CF91BF91FB
:103A2000AF919F918F917F916F915F914F913F9156
:103A30002F910F900FBE0F901F9018951F93CF934B
:103A4000DF93CDB7DEB7AA970FB6F894DEBF0FBEEF
:103A5000CDBF8FE392E02091F100FC012193CF01D3
:103A6000F2E087349F07B9F70E9480188091E80040
:103A700083FF1EC180913F02909140029A3008F06E
:103A800017C1E92FF0E0E45EF04E0C94A01E8038E0
:103A900099F0823809F00CC1809143028F70873011
:103AA00008F006C18093E9008091EB0085FB882730
:103AB00080F91092E90006C080913B0290913C028F
:103AC000911182609091E800977F9093E800809335
:103AD000F1001092F1008091E8008E77E5C0882314
:103AE00009F4D3C0823009F0E3C080914102811112
:103AF000D6C0809143028F702FEF280F263008F038
:103B0000D7C08093E9002091EB0020FFC8C093301C
:103B100031F48091EB0080628093EB00C0C0909103
:103B2000EB0090619093EB0021E030E001C0220FA8
:103B30008A95EAF72093EA001092EA008091EB0060
:103B40008860EACF8111B4C0109141021F77809143
:103B5000E3008078812B8093E3008091E800877FE9
:103B60008093E8000E943B1B8091E80080FFFCCF1F
:103B70008091E30080688093E30082E0111183E08C
:103B800080933E0295C08058823008F091C08091A9
:103B90004102909142028C3D23E09207A1F583E01F
:103BA0008A838AE289834FB7F894DE01139620E076
:103BB0003EE051E2E32FF0E050935700E49120FF04
:103BC00003C0E295EF703F5FEF708E2F90E0EA3018
:103BD000C0F0C7968D939D932F5F243159F74FBF47
:103BE0008091E800877F8093E8006AE270E0CE0170
:103BF00001960E944A1A8091E8008B778093E80032
:103C000057C0C096E7CF6091430270914402AE0165
:103C10004F5F5F4F0E947619BC01892B09F448C0A1
:103C20009091E800977F9093E80089819A810E94A3
:103C3000A81AE1CF8038E1F58091E800877F809372
:103C4000E80080913A028093F10045CF811130C0A5
:103C500090914102923060F58091E800877F8093D7
:103C6000E80090933A020E943B1B80913A0288231D
:103C700011F084E005C08091E30087FDFACF81E078
:103C800080933E020E94761813C0809141028130D9
:103C900079F481E0933009F080E080933C02109247
:103CA000E9008091E800877F8093E8000E943B1B39
:103CB0008091E80083FF0AC08091E800877F8093AD
:103CC000E8008091EB0080628093EB00AA960FB62B
:103CD000F894DEBF0FBECDBFDF91CF911F91089545
:103CE0000895CF9380913E028823A1F0C091E9000E
:103CF000CF709091EC00892F817090FD80E8C82BE7
:103D00001092E9008091E80083FD0E941E1DCF7093
:103D1000C093E900CF91089597FB072E16F4009405
:103D200007D077FD09D00E94A61E07FC05D03EF4FF
:103D3000909581959F4F0895709561957F4F089557
:103D4000EE0FFF1F0590F491E02D0994AA1BBB1BF9
:103D500051E107C0AA1FBB1FA617B70710F0A61B8B
:103D6000B70B881F991F5A95A9F780959095BC01AC
:103D7000CD010895F999FECF92BD81BDF89A99279A
:103D800080B50895A8E1B0E042E050E00C94EE1E4A
:103D9000262FF999FECF92BD81BDF89A019700B404
:103DA000021639F01FBA20BD0FB6F894FA9AF99AA4
:103DB0000FBE08950396272F0E94C91E0E94C81E99
:103DC000252F0E94C91E242F0C94C91E0196272F4F
:103DD0000E94C91E0C94C81EDC01CB01FC01F9999C
:103DE000FECF06C0F2BDE1BDF89A319600B40D9247
:103DF00041505040B8F70895F894FFCF1E0A1E0AAC
:103E0000760A760AC80AE40A4B0A4B0A260BB20B5A
:103E1000C10BC10B1D0C4B0A4B0A260C9D0C9D0CB3
:103E2000A60CA60CA80CA60CA60CA60C9D0C9D0C12
:103E3000AD0CA60CA60CAD0C471D6F1D581E6F1DBA
:0C3E4000581EA21DC31D581E1A1E261E6F
:103E4C00D5012808641E140A321EA4171B18F0177B
:103E5C00EC17DA1701E200E900EA00B500B600B78A
:103E6C0000CD008301CC008A019201940121022330
:103E7C000224022502260227022A02B300B4006F94
:103E8C00007000818283313237959392E200E90011
:103E9C00EA00B500B600B700CD008301CC008A0162
:103EAC0092019401210223022402250226022702F8
:0E3EBC002A02B300B4006F0070008182830000
:00000001FF
